:100000000C94DC000C9404010C9404010C94040185
:100010000C9404010C9404010C9404010C9404014C
:100020000C9404010C9404010C9412030C948403AA
:100030000C9404010C9404010C9404010C9404012C
:100040000C9404010C9404010C9404010C9404011C
:100050000C9404010C9404010C9404010C94760695
:100060000C9404010C9404010C9404010C940401FC
:100070000C9404010C9404010C9404010C940401EC
:100080000C9404010C9404010C9404010C940401DC
:100090000C9404010C9404010C9404010C940401CC
:1000A0000C9404010C9404010C940401ED05F0057A
:1000B000DF05E305E705110611061106F405F8054D
:1000C000FC050206060611060C06000000020009E7
:1000D0000F0000030401000C0000000000000000FD
:1000E000000000000000000000080B0002020201F6
:1000F00000090400000102020000052400100105AF
:1001000024010101042402060524060001070581DB
:100110000310004009040100020A00000007050264
:100120000240000007058302400000040309041296
:10013000010002EF02014041233780000101020368
:100140000141726475696E6F204C4C4300417264CA
:1001500075696E6F204D6963726F000000000025A5
:100160000028002B002E0031000000000024002792
:10017000002A002D003000040404040403040502D6
:100180000202020403020202020606060606060432
:1001900004020202040404080201104080401020FE
:1001A000408040800802040180402010020110803D
:1001B000102040402000EA0A11241FBECFEFDAE0F1
:1001C000DEBFCDBF11E0A0E0B1E0EEE2F7E102C09A
:1001D00005900D92A035B107D9F721E0A0E5B1E077
:1001E00001C01D92AD3FB207E1F710E0CCEDD0E0C9
:1001F00004C02197FE010E948A0BCB3DD107C9F7AD
:100200000E94E0090C94950B0C940000CF93DF93AF
:100210001F92CDB7DEB76983DC01ED91FC910280BE
:10022000F381E02D41E050E0BE016F5F7F4F099503
:100230000F90DF91CF91089583E08093E900809142
:10024000F200882319F08AE38093E8000895FC0106
:100250008485958597FD0BC09FB7F89482E08093C5
:10026000E9008091F2009FBF90E0019608959FB74A
:10027000F89482E08093E9008091F2009FBF90E0C3
:1002800008954091570150915801209155013091A6
:10029000560142175307B4F49091E8009570E1F3CA
:1002A0009091E80092FD19C08093F1008091570170
:1002B0009091580101968F739927892B19F48EEF2D
:1002C0008093E80080915701909158010196909396
:1002D00058018093570181E0089580E00895DF92EE
:1002E000EF92FF920F931F93CF93DF93D82EF92EA7
:1002F000E42E062F10E0C8010196880F0E944101EC
:1003000083E00E944101CD2DDF2D0C0F1D1FC01772
:10031000D10789F0E7FE03C0FE01849101C0888106
:100320000E944101F82E80E00E9441018F21219618
:100330008111EDCF01C081E0DF91CF911F910F912D
:10034000FF90EF90DF900895DF92EF92FF920F936E
:100350001F93CF93DF93D82E8A017B01E40EF51E05
:10036000EB01CE15DF0571F0D7FE03C0FE018491CD
:1003700001C088810E94410121968111F2CF8FEF47
:100380009FEF01C0C801DF91CF911F910F91FF90A6
:10039000EF90DF900895615030F02091F100FC0162
:1003A00020830196F8CF289A84E680935D01089512
:1003B0003FB7F8948091510190915201A09153015F
:1003C000B091540126B5A89B05C02F3F19F00196A6
:1003D000A11DB11D3FBFBA2FA92F982F8827820FCB
:1003E000911DA11DB11DBC01CD0142E0660F771F1B
:1003F000881F991F4A95D1F70895FC0142835383C2
:100400006483758386819781A085B185480F591FC4
:100410006A1F7B1F42875387648775870895CF9231
:10042000DF92EF92FF920F931F93CF93DF936C01B4
:100430007A018B01C0E0D0E0CE15DF0581F0D80154
:100440006D918D01D601ED91FC910190F081E02D2F
:10045000C6010995892B11F02196EECF7E01C701C7
:10046000DF91CF911F910F91FF90EF90DF90CF9090
:100470000895CF93DF93EC01EE85FF85309709F067
:1004800009952FB7F89480915F0190916001A09138
:100490006101B09162012FBF8E839F83A887B987C6
:1004A0004A815B816C817D81840F951FA61FB71FD8
:1004B0008A879B87AC87BD87DF91CF9108950F9383
:1004C0001F93FC010285138524853585401B510B44
:1004D000620B730B77FD02C0808901C080E01F9121
:1004E0000F910895089580E090E008950E943509E5
:1004F00090E008950F931F93CF93DF931F92CDB792
:10050000DEB78C01FC018485958597FF0EC0CE0176
:1005100001960E940709019719F4898190E002C0B1
:100520008FEF9FEFF80195878487F8018485958583
:100530000F90DF91CF911F910F910895CF93DF938B
:100540001F92CDB7DEB7FC018485958597FD05C068
:100550002FEF3FEF358724870BC0CE0101960E9415
:100560000709019719F4898190E002C08FEF9FEF8E
:100570000F90DF91CF9108950F931F93CF93DF9347
:100580001F92CDB7DEB782E0898342E450E069EE86
:1005900070E080E80E94A4010E94CC09DC01129660
:1005A0000D911C9113970115110589F0D801ED915A
:1005B000FC910280F381E02DBE016F5F7F4FC80187
:1005C000099597FD04C0F80100851185ECCF89815C
:1005D0000F90DF91CF911F910F9108950E94900B82
:1005E00060E085E00E94BF0885E491E00E946C080D
:1005F00060E085E00E94BF082FB7F89460915F012A
:100600007091600180916101909162012FBF28EE8D
:1006100033E040E050E00E94680BCA01B9014AE0B3
:100620000C947E081F920F920FB60F9211248F9395
:100630009F938091E1009091E100937F9093E1007E
:1006400083FF0FC01092E90091E09093EB001092AD
:10065000EC0092E39093ED0010925E0198E090938D
:10066000F00082FF20C093E09093E9009091F200A7
:10067000992319F09AE39093E80090915B019923F4
:1006800039F090915B01915090935B01992389F12E
:1006900090915D01992339F090915D019150909373
:1006A0005D01992341F184FF10C08091E2008E7EAC
:1006B00081608093E2008091E1008F7E8093E10071
:1006C00080915C018E7E806111C080FF16C0809198
:1006D000E2008E7E80618093E2008091E1008E7E58
:1006E0008093E10080915C018E7E816080935C014B
:1006F00004C05D98CDCF2898D6CF9F918F910F9051
:100700000FBE0F901F9018951F920F920FB60F9269
:100710001124CF92DF92EF92FF920F931F932F93AA
:100720003F934F935F936F937F938F939F93AF9379
:10073000BF93EF93FF93CF93DF93CDB7DEB76C9763
:10074000DEBFCDBF1092E9008091E80083FFFBC1BE
:1007500068E0CE0145960E94CB0182EF8093E800CD
:100760008D8987FF05C09091E80090FFFCCF03C002
:100770009EEF9093E800982F907609F0C6C09E896E
:100780004F89588D2F89F88C91110CC0803829F42D
:1007900080915A018093F10002C01092F1001092F2
:1007A000F10045C1913051F4811141C141305105F1
:1007B00009F03DC180915A018D7F0BC0933061F4E7
:1007C000811135C14130510509F031C180915A0183
:1007D000826080935A012BC1953049F48091E800E2
:1007E00080FFFCCF822F80688093E30020C1963089
:1007F00009F05EC00B8D1C8D22E01092E900109272
:10080000580110925701F21232C010925601109204
:1008100055010E94BC0299E0BE016F5F7F4FDB0172
:10082000E92F1D92EA95E9F79983FA8291E09E8378
:1008300090EA98879AEF9987209157013091580153
:10084000275F3F4F3C832B838D831092E9001092EA
:10085000580110925701109356010093550149E039
:1008600050E080E00E94A4010E94BC02E0C010930E
:100870005601009355010E94CC09DC0112960D919E
:100880001C9113970115110509F4BBC0D801ED9116
:10089000FC910480F581E02DBE016B5E7F4FC801A5
:1008A0000995009709F0C7C0F80100851185EACFC6
:1008B000973009F445C1983021F481E08093F1002C
:1008C000B6C0993009F0B3C0837009F039C1E7E1CF
:1008D000F1E081E031E096E32081211109C08EE74B
:1008E0008093EA001092EA008F8980935E019FC096
:1008F0008093E9003093EB0021912093EC009093DA
:10090000ED008F5F873041F7EACF8B8D9C8D109281
:10091000E90010925801109257019093560180936C
:100920005501898D811153C08E899D89913A49F471
:10093000813209F005C147E050E06EE071E080E0EF
:10094000BBC0913209F0FCC0833269F48F89988D65
:10095000A0E0B0E080930A0190930B01A0930C01FA
:10096000B0930D0164C0803269F48091E80082FF89
:10097000FCCF67E08EE091E00E94CB018BEF80938B
:10098000E80055C0823209F052C08F89809315016A
:10099000EEEFFFE7859194918B3F9C4D19F0E0E0DD
:1009A000F8E002C0EEEFFAE080910E0190910F01A5
:1009B000A0911001B0911101803B9440A105B105B7
:1009C00009F09EC08091150180FF79C099C00E94F6
:1009D000CC09FC01028113810115110509F4B0C095
:1009E000D801ED91FC910190F081E02DBE016B5E8C
:1009F0007F4FC801099581111AC0F8010085118542
:100A0000EBCFF1E0FF1609F44EC0F3E0FF1298C0FF
:100A10008F89882309F44AC0823089F440E86DE068
:100A20008DE491E00E946F01882309F489C08EEF64
:100A30008093E80088C018161906CCF381C0813075
:100A400029F440E86BE081E491E0ECCF833009F0D9
:100A500077C00E94CC09DC011296ED90FC901397B0
:100A60008E010F5F1F4F6801E114F10479F0D70187
:100A7000ED91FC910680F781E02DB801C701099541
:100A8000080F111DF701E084F184EECFD8011C920C
:100A9000F60101900020E9F73197BF016C197D093B
:100AA00040E0C601BFCF6FE271E002C06BE271E0CF
:100AB000FB01449150E080E80E94A401B8CFEE3FD2
:100AC0002AE0F20751F0808191818737A7E79A07E2
:100AD00021F09093FF0A8093FE0A87E797E79183BE
:100AE000808380916000809359019BE088E10FB67C
:100AF000F894A895809360000FBE9093600097CF04
:100B0000808191818737974709F091CFA89580918F
:100B1000600088618093600080915901809360003B
:100B2000EE3FBAE0FB0739F08091FE0A9091FF0A90
:100B3000918380837CCF1092FF0A1092FE0A77CFB8
:100B400081E28093EB006C960FB6F894DEBF0FBE87
:100B5000CDBFDF91CF91FF91EF91BF91AF919F9169
:100B60008F917F916F915F914F913F912F911F9145
:100B70000F91FF90EF90DF90CF900F900FBE0F90EE
:100B80001F901895362F90E0FC01E653FF4F4491DB
:100B9000FC01EA56FE4F2491FC01E958FE4F849176
:100BA000882309F452C04423E1F150E0FA0131975F
:100BB000EF30F105B0F5EA5AFF4F0C948A0B909193
:100BC00080009F7707C0909180009F7D03C0909127
:100BD0008000977F9093800024C094B59F7702C0D7
:100BE00094B59F7D94BD1DC0909190009F7707C0E4
:100BF000909190009F7D03C090919000977F90937B
:100C000090000FC09091C0009F7703C09091C000EA
:100C10009F7D9093C00005C09091C200977F9093F4
:100C2000C200E82FF0E0EE0FFF1FE55AFE4FA5913E
:100C3000B4919FB7F894311104C08C91209528236A
:100C400002C0EC912E2B2C939FBF0895CF93DF937E
:100C5000EC0160E08E810E94C20561E08E810E94FD
:100C6000C20560E08E810E94C2058BE891E0019789
:100C7000F1F7DF91CF9108958F929F92AF92BF923B
:100C8000CF92DF92EF92FF926B017C010E94D8011C
:100C90004B015C01C114D104E104F104F1F00E94A4
:100CA000D801DC01CB0188199909AA09BB09883E42
:100CB0009340A105B10570F321E0C21AD108E10803
:100CC000F10888EE880E83E0981EA11CB11CC114A7
:100CD000D104E104F10419F7DDCFFF90EF90DF902C
:100CE000CF90BF90AF909F908F9008951F920F92DA
:100CF0000FB60F9211242F933F938F939F93AF932F
:100D0000BF9380915F0190916001A0916101B091CA
:100D100062013091500123E0230F2D3720F401961A
:100D2000A11DB11D05C026E8230F0296A11DB11D0E
:100D30002093500180935F0190936001A093610123
:100D4000B09362018091510190915201A0915301A1
:100D5000B09154010196A11DB11D80935101909352
:100D60005201A0935301B0935401BF91AF919F9151
:100D70008F913F912F910F900FBE0F901F9018955C
:100D8000CF92DF92EF92FF920F931F93CF93DF9357
:100D90006C017C0187E0E80EF11CC0E0D0E0062F7A
:100DA00010E0B8010C2E02C0759567950A94E2F721
:100DB0006170F70181917F010E94C2052196C430C4
:100DC000D10579F7C601DF91CF911F910F91FF9067
:100DD000EF90DF90CF900C942606CF92DF92EF92A7
:100DE000FF920F931F93CF93DF93EC01F62E642FA6
:100DF0008C810E94C2058D818F3F19F060E00E94B6
:100E0000C2058F850F2D10E084FF25C06E0187E09D
:100E1000C80ED11CE12CF12CB8010E2C02C0759526
:100E200067950A94E2F76170F60181916F010E9463
:100E3000C205FFEFEF1AFF0A88E0E816F10461F738
:100E4000CE01DF91CF911F910F91FF90EF90DF9036
:100E5000CF900C942606B80184E0759567958A9525
:100E6000E1F7CE010E94C0066F2DCE01DF91CF9138
:100E70001F910F91FF90EF90DF90CF900C94C006E0
:100E800041E00E94ED0681E090E00895809101012B
:100E9000882311F08EE301C08CE38093000160E0B1
:100EA000809106010E94BF0888E491E00E946C08CE
:100EB00060E0809108010E94BF086091000189E80C
:100EC00091E00E94400780910801909109012091D2
:100ED0000401309105018217930739F02091020136
:100EE000309103018217930731F43091010121E021
:100EF00023272093010190930701809306012091FD
:100F00000101222311F0019601C00197909309017C
:100F10008093080161E085E00E94BF08809108018C
:100F2000909109010E94DE0841E06DE389E891E0BB
:100F30000E94ED068091010190E00E94DE0868E7C2
:100F400070E080E090E00C943C0690E0FC01EA56F2
:100F5000FE4F2491FC01E958FE4F8491882399F0BB
:100F600090E0880F991FFC01E759FE4FA591B491BD
:100F7000FC01E55AFE4F859194918FB7F894EC915E
:100F8000E22BEC938FBF089540E0682F89E891E051
:100F90000C94ED06CF93DF93823028F09091980166
:100FA00098609093980180939C0110929D0180E439
:100FB00080939E0180E180939F0180E58093A00152
:100FC00080918D010E94A50780918E018F3F11F0C5
:100FD0000E94A50780918F010E94A507C9E8D1E072
:100FE0009E01295831408091980184FD03C084E01E
:100FF00090E002C088E090E021962817390724F499
:101000008E810E94A507ECCF8BE39DE00197F1F75D
:1010100060E080918D010E94C20560E080918F01A7
:101020000E94C20580918E018F3F19F060E00E94FE
:10103000C2058091980184FD20C063E089E891E0B9
:101040000E94C006CBE4D6E4CE010197F1F763E03D
:1010500089E891E00E94C0062197F1F763E089E8F2
:1010600091E00E94C00683E592E00197F1F762E00B
:1010700089E891E00E94C00615C080620E94C40702
:101080008BE496E40197F1F78091980180620E94C9
:10109000C40783E592E00197F1F78091980180629F
:1010A0000E94C4078091980180620E94C40784E076
:1010B000809399018CE00E94C40781E00E94C407DC
:1010C0008BE39FE10197F1F782E080939A0186E03C
:1010D000DF91CF910C94C407009769F0FC01019057
:1010E0000020E9F73197AF01481B590BBC0189E893
:1010F00091E00C940F0280E090E008958F929F920F
:10110000AF92BF920F931F93CF93DF93CDB7DEB70C
:10111000A1970FB6F894DEBF0FBECDBF19A2423023
:1011200008F44AE08E010F5D1F4F842E912CA12CF4
:10113000B12CA50194010E94680BE62FB901CA01E8
:1011400001501109EA3014F4E05D01C0E95CD801F6
:10115000EC93232B242B252B61F7C8010E946C08EC
:10116000A1960FB6F894DEBF0FBECDBFDF91CF9131
:101170001F910F91BF90AF909F908F900895643012
:1011800008F063E090919C01691710F06FEF690F10
:10119000E62FF0E0E757FE4F9489890F80680C94A2
:1011A000C4072FB7F89440915F015091600160919E
:1011B0006101709162012FBF0C945F02CF92DF92A8
:1011C000EF92FF926C01990FEE08FF08F7FE16C030
:1011D00041E06DE289E891E00E94ED0666277727FD
:1011E000CB016C197D098E099F094AE00E947E0897
:1011F0000196FF90EF90DF90CF9008954AE0C701ED
:10120000B601FF90EF90DF90CF900C947E08209174
:101210005E01211103C08FEF9FEF08955FB7F8942F
:1012200022E02093E9002091F20030E0121613062C
:1012300014F421E030E0422FFC0184E6415038F004
:10124000289A80935D019091F1009193F7CF211539
:10125000310521F08091F200882319F05FBFC901A8
:1012600008958BE68093E800F9CF2FB7F89483E0D8
:101270008093E9009091E800892F807295FF04C067
:101280009091F20080E4891B2FBF08958F929F9266
:10129000AF92BF92CF92DF92EF92FF920F931F9384
:1012A000CF93DF936C017B018A0180911501882324
:1012B00009F45CC080915E01882309F457C08091D5
:1012C0005C0180FF05C08091E00082608093E000B7
:1012D000E801B12C8AEFA82E93E0892E2AE3922E02
:1012E000209711F4BB20D9F10E94350981110AC061
:1012F000AA94AA20D9F161E070E080E090E00E9419
:101300003C06EECF282F30E0C217D3070CF48C2F09
:101310009FB7F8948092E9002091E80025FF1DC056
:10132000282F30E0C21BD30BF701815020F04191F0
:101330004093F100FACFE20EF31EBB2019F0909219
:10134000E8000AC08091E80085FD07C09092E8009F
:10135000BB24B394209709F0B12C9FBFC1CF5D9AF5
:1013600084E680935B011016110644F081E090E062
:10137000F6019383828380E090E001C0C801DF9191
:10138000CF911F910F91FF90EF90DF90CF90BF9082
:10139000AF909F908F9008958091A50181110DC00D
:1013A00082E08093A10184E08093A2011092A401C5
:1013B0001092A30181E08093A50181EA91E0089554
:1013C000789484B5826084BD84B5816084BD85B520
:1013D000826085BD85B5816085BD80916E0081602C
:1013E00080936E00109281008091810082608093D2
:1013F00081008091810081608093810080918000D4
:101400008160809380008091910082608093910040
:101410008091910081608093910080919000816023
:10142000809390008091C10084608093C10080917E
:10143000C10082608093C1008091C100816080936F
:10144000C1008091C30081608093C3008091C0007F
:1014500082608093C0008091C20081608093C2004E
:1014600080917A00846080937A0080917A00826013
:1014700080937A0080917A00816080937A008091D5
:101480007A00806880937A0010925E0110925A016F
:1014900010925C018091D70081608093D70080EA30
:1014A0008093D80089B5806189BD89B5826089BD86
:1014B00009B400FEFDCF61E070E080E090E00E94A2
:1014C0003C068091D8008F7C80618093D800809109
:1014D000E000807F8093E0008091E1008E7E809329
:1014E000E1008DE08093E200559A209A5D9828985B
:1014F00082E00E94CA0760E080E00E94BF088AE4A0
:1015000091E00E946C0880EF92E0909385018093B7
:10151000840186E497E0909372018093710188EED4
:1015200093E0A0E0B0E08093780190937901A093DC
:101530007A01B0937B0180917C0190917D01A09113
:101540007E01B0917F0188519C4FAF4FBF4F809378
:10155000800190938101A0938201B093830184E67E
:1015600090E0A0E0B0E08093650190936601A093C5
:101570006701B09368018091690190916A01A0911F
:101580006B01B0916C018C599F4FAF4FBF4F80934F
:101590006D0190936E01A0936F01B0937001C0E054
:1015A000D0E086E791E00E94D108882321F086E709
:1015B00091E00E94390283E691E00E94D1088823DD
:1015C00021F083E691E00E943902209751F30E94B6
:1015D0000000E7CFEDEAF1E01382128288EE93E09B
:1015E000A0E0B0E084839583A683B78381E291E095
:1015F000918380838FEF9FEF95878487E9E8F1E0FF
:10160000138212828DE391E09183808387E084834B
:101610008FEF858388E0868389E087838AE08087EF
:101620008BE081878CE08287138614861586168668
:10163000178681E00E94CA07E6E7F1E023E331E084
:101640003183208381E0808B17861686128613866D
:10165000148615869FB7F89440915F015091600100
:1016600060916101709162019FBF468357836087DB
:101670007187F28BE18B128213821482158242876A
:10168000538764877587E3E6F1E031832083808B9D
:101690001786168612861386148615862FB7F89439
:1016A00080915F0190916001A0916101B091620110
:1016B0002FBF86839783A087B187F28BE18B12823D
:1016C00013821482158282879387A487B587089531
:1016D000A1E21A2EAA1BBB1BFD010DC0AA1FBB1F36
:1016E000EE1FFF1FA217B307E407F50720F0A21BA8
:1016F000B30BE40BF50B661F771F881F991F1A9415
:1017000069F760957095809590959B01AC01BD013E
:10171000CF010895EE0FFF1F0590F491E02D09947D
:0E17200081E090E0F8940C94950BF894FFCFC4
:10172E00200009000F000C000C00FFFFFFFF00E17E
:10173E0000000000000000C18081000000000000D9
:10174E00000601460976021C0127019E027A02005C
:10175E00000000FD015F0239020000000040070F8B
:10176E00027302720220202020005365633A20008B
:00000001FF
